:020000040800F2
:1000000000000220C136000811370008113700082F
:1000100011370008113700081137000800000000F0
:10002000000000000000000000000000312E000869
:100030001137000800000000D12E0008352F0008FD
:100040001137000811370008113700081137000870
:100050001137000811370008113700081137000860
:100060001137000811370008113700081137000850
:100070001137000811370008113700081137000840
:100080001137000811370008113700081137000830
:100090001137000811370008113700081137000820
:1000A0001137000811370008113700081137000810
:1000B0001137000811370008113700081137000800
:1000C00011370008113700081137000811370008F0
:1000D00011370008F5320008113700081137000801
:1000E00011370008113700081137000811370008D0
:1000F00011370008113700081137000811370008C0
:1001000011370008113700081137000811370008AF
:10011000113700081137000811370008113700089F
:10012000113700081137000811370008113700088F
:10013000113700080000000000000000113700081F
:10014000113700081137000811370008113700086F
:10015000113700081137000811370008113700085F
:10016000113700081137000811370008113700084F
:1001700011370008113700080000000000000000DF
:080180001137000811370008D7
:1001900010B5054C237833B9044B13B10448AFF3C1
:1001A00000800123237010BD100400200000000017
:1001B0008437000808B5034B1BB103490348AFF36C
:1001C000008008BD000000001404002084370008EF
:1001D00053B94AB9002908BF00281CBF4FF0FF31AE
:1001E0004FF0FF3000F072B9ADF1080C6DE904CEAC
:1001F00000F006F8DDF804E0DDE9022304B0704702
:100200002DE9F047089E04468846002B4BD18A42D0
:10021000154667D9B2FA82F24AB1C2F1200701FA53
:1002200002F320FA07F7954047EA030894404FEAA3
:10023000154E230CB8FBFEF71FFA85FC0EFB178842
:1002400043EA084307FB0CF1994209D9EB1807F17F
:10025000FF3080F01B81994240F21881023F2B440D
:100260005B1AA4B2B3FBFEF00EFB103344EA034466
:1002700000FB0CFCA44509D92C1900F1FF3380F0D8
:100280000781A44540F2048102382C4440EA07402B
:10029000A4EB0C0400271EB1D4400023C6E90043A0
:1002A0003946BDE8F0878B4209D9002E00F0EB807B
:1002B0000027C6E9000138463946BDE8F087B3FAA1
:1002C00083F7002F47D18B4202D3824200F2FA809B
:1002D000841A61EB030301209846002EE0D0C6E9A2
:1002E0000048DDE702B9FFDEB2FA82F2002A40F0F0
:1002F0008F80491B4FEA154E1FFA85F80127B1FB85
:10030000FEFC230C0EFB1C1143EA014308FB0CF11D
:10031000994207D9EB180CF1FF3002D2994200F252
:10032000CD808446591AA3B2B1FBFEF00EFB101427
:1003300043EA044408FB00F8A04507D92C1900F152
:10034000FF3302D2A04500F2B6801846A4EB0804A1
:1003500040EA0C409FE7C7F1200CBB4022FA0CFE9C
:100360004EEA030E01FA07F420FA0CF521FA0CF319
:100370004FEA1E482543B3FBF8F92C0C08FB193350
:100380001FFA8EFA44EA034309FB0AF49C4202FA7C
:1003900007F200FA07F10BD91EEB030309F1FF3056
:1003A00080F087809C4240F28480A9F10209734466
:1003B0001B1BADB2B3FBF8F008FB103345EA034456
:1003C00000FB0AFAA24508D91EEB040400F1FF3332
:1003D0006BD2A24569D90238744440EA0940A0FBB7
:1003E0000289A4EB0A044C45C2464B4654D351D073
:1003F000002E69D0B1EB0A0564EB030404FA0CFC8F
:10040000FD40FC404CEA0505C6E90054002747E7DB
:10041000C2F1200320FA03F7954001FA02F021FA15
:1004200003F34FEA154E3843010CB3FBFEF71FFAF6
:1004300085F80EFB173341EA034107FB08F38B42B3
:1004400004FA02F407D9691807F1FF3C2FD28B4256
:100450002DD9023F2944CB1A81B2B3FBFEF00EFB2B
:10046000103341EA034100FB08F38B4207D96918B6
:1004700000F1FF3C17D28B4215D902382944C91A22
:1004800040EA07473BE73746304609E70746E7E6D5
:100490001846FBE64145ABD2B8EB020A69EB0E0207
:1004A00001381346A4E76046E9E7184695E7674632
:1004B000D1E781467CE702382C4447E7ACF1020CD7
:1004C0002B442FE7384608E73746E9E6704700BF78
:1004D00000B587B000230093144A116B41F001016D
:1004E0001163126B02F001020092009A4FF48072C5
:1004F0000192012202920393049301A90C4800F097
:10050000C9F80B4C00224FF48071204600F0A6F988
:100510004B2001F069FF01224FF48071204600F06A
:100520009DF940F29D3001F05FFFEAE7003802409C
:1005300000000240FEE7000000B595B000220192E5
:10054000214B196C41F0805119641B6C03F08053EE
:100550000193019B02921D4B196841F4804119607F
:100560001B6803F480430293029B0223089301213A
:100570000B9110210C910E930F9208221092782269
:10058000119212930523139308A800F0D3F998B998
:100590000F23039302230493002305934FF4A053E6
:1005A00006934FF480530793032103A800F0E2FB66
:1005B00030B915B05DF804FB4E210548FFF7BAFFCE
:1005C0005C210348FFF7B6FF00380240007000408E
:1005D0009C37000800B585B000240394029400F015
:1005E00045F9FFF7A9FF03AB01930094234640228E
:1005F0001149124801F070FD02F01EFF40218020D9
:1006000002F0E4FF02F06EFF4FF4FA6000F07EF9B2
:1006100002F0A0FF02F066FF02F0A6FF02AB01931A
:10062000009423464FF480620549064801F054FDCA
:1006300001F084FDFEE700BFA8370008D1040008E0
:10064000B4370008D53200080F49D1F8883043F498
:100650007003C1F888300D4B1A6842F001021A602D
:10066000002098601A6822F0847222F480321A60A6
:10067000074A5A601A6822F480221A60D8604FF044
:1006800000638B60704700BF00ED00E0003802405F
:100690001030002400230F2B00F2D780F0B482B07A
:1006A00039E0072200E00022B2403A430234674EAC
:1006B00046F82420664A1468EA4302EA04064F68B2
:1006C00017F4803F01D045EA0406614C2660646857
:1006D00002EA04064F6817F4003F01D045EA040619
:1006E0005B4C6660A46802EA04064F6817F4801F3A
:1006F00001D045EA0406564CA660E46822404E68E4
:1007000016F4001F01D045EA0402514CE2600133A7
:100710000F2B00F2978001229A400C6804EA020530
:10072000AA42F4D14C68022C01D0122C10D1DE0860
:10073000083650F826C003F00704A7000F24BC4079
:100740002CEA040C0C69BC4044EA0C0440F8264036
:1007500004685F000326BE40F64306EA040C4C68BA
:1007600004F00304BC4044EA0C0404604C6804F147
:10077000FF3CBCF1010F03D9112C01D0122C10D178
:10078000846806EA040CCC68BC4044EA0C0484602B
:10079000446824EA02024C68C4F300149C401443E9
:1007A0004460C26816408A68BA403243C2604A68F0
:1007B00012F0805FABD000220192264A546C44F4C0
:1007C00080445464526C02F480420192019A9C0865
:1007D000A61C1E4A52F8267003F0030296000F2250
:1007E000B24027EA02071C4A90423FF45CAF02F590
:1007F000806290421AD002F58062904218D002F5D1
:100800008062904216D002F58062904214D002F5C8
:100810008062904212D002F58062904210D002F5C0
:10082000806290423FF43DAF08223DE701223BE762
:10083000022239E7032237E7042235E7052233E7AE
:10084000062231E702B0F0BC704770470038014023
:10085000003C0140003802400000024012B9090487
:1008600081617047816170477047000008B50A4B8D
:100870001A6842F400721A601A6842F480621A60C0
:100880001A6842F480721A60032000F045FBFFF7FB
:10089000EBFF002008BD00BF003C024010B504463D
:1008A0000E4B18784FF47A73B3FBF0F30C4A1068D0
:1008B000B0FBF3F000F076FB68B90F2C01D90120F2
:1008C0000AE0002221464FF0FF3000F037FB054BD5
:1008D0001C60002000E0012010BD00BF04000020CB
:1008E0000000002008000020034A1168034B1B7819
:1008F0000B441360704700BF283201200400002021
:10090000014B1868704700BF2832012038B50446F3
:10091000FFF7F6FF0546B4F1FF3F02D0044B1B780A
:100920001C44FFF7EDFF401BA042FAD338BD00BFC7
:1009300004000020002800F0BB8170B582B004469E
:10094000036813F0010F3BD0A74B9B6803F00C0327
:10095000042B2CD0A44B9B6803F00C03082B21D054
:100960006368B3F5803F4FD0B3F5A02F52D09E4BB4
:100970001A6822F480321A601A6822F480221A60FF
:100980006368002B50D0FFF7BBFF0546964B1B68F2
:1009900013F4003F14D1FFF7B3FF401B6428F5D9CF
:1009A00003208AE1904B5B6813F4800FD8D08E4B04
:1009B0001B6813F4003F03D06368002B00F07A81BA
:1009C000236813F0020F55D0874B9B6813F00C0F70
:1009D0003ED0854B9B6803F00C03082B33D0E368B3
:1009E000002B68D0814B01221A60FFF789FF054672
:1009F0007D4B1B6813F0020F54D1FFF781FF401BA2
:100A00000228F5D9032058E1774A136843F480336C
:100A10001360B5E7744B1A6842F480221A601A68B2
:100A200042F480321A60ABE7FFF76AFF05466E4B6F
:100A30001B6813F4003FC3D0FFF762FF401B64281C
:100A4000F5D9032039E1684B5B6813F4800FC6D1F8
:100A5000654B1B6813F0020F04D0E368012B01D033
:100A600001202AE1604A136823F0F803216943EA70
:100A7000C1031360236813F0080F40D0636963B3A8
:100A80005B4B01221A60FFF73BFF0546564B5B6F3D
:100A900013F0020F33D1FFF733FF401B0228F5D9C3
:100AA00003200AE1504A136823F0F803216943EA5E
:100AB000C1031360DEE74D4B00221A60FFF720FFF1
:100AC0000546494B1B6813F0020FD3D0FFF718FF00
:100AD000401B0228F5D90320EFE0454B00221A60A5
:100AE000FFF70EFF0546404B5B6F13F0020F06D079
:100AF000FFF706FF401B0228F5D90320DDE023683D
:100B000013F0040F79D0384B1B6C13F0805F33D196
:100B100000230193344B1A6C42F080521A641B6C10
:100B200003F080530193019B0125324B1B6813F4A2
:100B3000807F23D0A368012B34D0052B38D02A4BDB
:100B40001A6F22F001021A671A6F22F004021A6764
:100B5000A368002B36D0FFF7D3FE0646224B1B6F4F
:100B600013F0020F48D1FFF7CBFE801B41F2883310
:100B70009842F3D90320A0E00025D6E71D4A136868
:100B800043F480731360FFF7BBFE0646194B1B68E6
:100B900013F4807FCED1FFF7B3FE801B0228F5D976
:100BA00003208AE0104A136F43F001031367CFE775
:100BB0000D4B1A6F42F004021A671A6F42F00102DD
:100BC0001A67C5E7FFF79CFE0646074B1B6F13F03D
:100BD000020F11D0FFF794FE801B41F28833984238
:100BE000F3D9032069E000BF00380240000047420B
:100BF000800E474200700040E5B9A369002B5BD02E
:100C0000304A926802F00C02082A58D0022B17D002
:100C10002D4B00221A60FFF773FE0446294B1B6818
:100C200013F0007F42D0FFF76BFE001B0228F5D9BE
:100C3000032042E0234A136C23F080531364DCE763
:100C4000214B00221A60FFF75BFE05461D4B1B6817
:100C500013F0007F06D0FFF753FE401B0228F5D9A2
:100C600003202AE0E369226A1343626A43EA82139B
:100C7000A26A5208013A43EA0243E26A43EA026383
:100C8000104A5360104B01221A60FFF739FE0446E8
:100C90000C4B1B6813F0007F06D1FFF731FE001BE1
:100CA0000228F5D9032008E0002006E0002004E037
:100CB00001207047012000E0002002B070BD01203B
:100CC000FBE700BF0038024060004742264B9B68AC
:100CD00003F00C03042B44D0082B01D023487047A9
:100CE0002DE9F04B204B5A6802F03F025B6813F489
:100CF000800F13D01C4B5968C1F3881100231C4886
:100D0000A1FB0001FFF764FA174B5B68C3F30143D3
:100D100001335B00B0FBF3F0BDE8F08B124B5B6876
:100D2000C3F388131E4600275C010025E41A65EB17
:100D30000705A90141EA9461A001001B61EB0501CF
:100D4000CB0043EA5073C400A01943EB07018B02A8
:100D500043EA90538402204619460023FFF738FAED
:100D6000D2E70348704700BF003802400024F40077
:100D700040787D01002800F09D8070B504464F4BFF
:100D80001B6803F00F038B4209D2CBB24B4A13709E
:100D9000136803F00F038B4201D0012070BD23685C
:100DA00013F0020F17D013F0040F04D0444A9368D5
:100DB00043F4E0539360236813F0080F04D0404AD3
:100DC000936843F4604393603D4A936823F0F003D3
:100DD000A068034393600D46236813F0010F32D0DF
:100DE0006368012B21D09A1E012A25D9344A126842
:100DF00012F0020F60D032498A6822F003021343D6
:100E00008B60FFF77DFD06462D4B9B6803F00C03BE
:100E10006268B3EB820F16D0FFF772FD801B41F2C0
:100E200088339842F0D90320B8E7254A126812F4B3
:100E3000003FE0D10120B1E7214A126812F0007FA3
:100E4000D9D10120AAE71D4B1B6803F00F03AB4269
:100E500009D9EAB2194B1A701B6803F00F03AB42B1
:100E600001D001209AE7236813F0040F06D0144A3A
:100E7000936823F4E053E1680B439360236813F015
:100E8000080F07D00E4A936823F46043216943EAB0
:100E9000C1039360FFF71AFF094B9B68C3F3031369
:100EA000084AD35CD840084B18600020FFF7F6FCD6
:100EB000002073E70120704701206FE7003C0240EB
:100EC00000380240C037000800000020014B1868BD
:100ED000704700BF0000002008B5FFF7F7FF044B84
:100EE0009B68C3F38223034AD35CD84008BD00BF8C
:100EF00000380240D037000808B5FFF7E7FF044B81
:100F00009B68C3F34233034AD35CD84008BD00BF9B
:100F100000380240D0370008074AD36823F4E06362
:100F20001B041B0C000200F4E060184340F0BF609B
:100F300040F40030D060704700ED00E030B4174B53
:100F4000DB68C3F30223C3F10704042C28BF042485
:100F50001D1D062D18D9033B4FF0FF3505FA04F48B
:100F600021EA0401994005FA03F322EA0303194335
:100F700000280BDB0901C9B200F1604000F56140B7
:100F800080F8001330BC70470023E5E700F00F0045
:100F90000901C9B2024B1954F4E700BF00ED00E0AB
:100FA00014ED00E00138B0F1807F0AD2064B5860A2
:100FB000064AF02182F823100020986007221A6068
:100FC00070470120704700BF10E000E000ED00E036
:100FD0002DE9F843044601680A6922F44052C368C7
:100FE00013430B610168CA6822F4164222F00C0216
:100FF00083680069034360690343E0690343134363
:10100000CB6021684A6922F44072A36913434B61A3
:10101000E369B3F5004F60D02368B84A934200F00B
:10102000148102F58062934200F00F81FFF754FFB4
:1010300000EB800000EB80006568AD00B0FBF5F5CB
:10104000AF4FA7FB05356D092E01FFF745FF00EBFC
:10105000800000EB80006568AD00B0FBF5F9FFF79C
:101060003BFF00EB800000EB80006568AD00B0FB4B
:10107000F5F5A7FB05356D094FF0640808FB1595DC
:101080002D013235A7FB05356D0905F0F005354416
:10109000FFF722FF00EB800000EB80006668B600DF
:1010A000B0FBF6F6FFF718FF00EB800000EB8000C6
:1010B00063689B00B0FBF3F0A7FB0030400908FB1E
:1010C00010684FEA081808F13208A7FB0837C7F381
:1010D000431723682F449F600DE12368874A93429A
:1010E0005BD002F58062934257D0FFF7F5FE00EB2C
:1010F000800000EB800065686D00B0FBF5F5804F67
:10110000A7FB05356D092E01FFF7E6FE00EB800019
:1011100000EB800065686D00B0FBF5F9FFF7DCFEC1
:1011200000EB800000EB800065686D00B0FBF5F51A
:10113000A7FB05356D094FF0640808FB1595ED0018
:101140003235A7FB05356D096D0005F4F87535449A
:10115000FFF7C2FE00EB800000EB800066687600BF
:10116000B0FBF6F6FFF7B8FE00EB800000EB800066
:1011700063685B00B0FBF3F3A7FB03235B0908FB89
:1011800013684FEAC80808F13208A7FB0837C7F30D
:10119000421723682F449F60ADE0FFF7ADFE00EBE0
:1011A000800000EB800065686D00B0FBF5F5544FE2
:1011B000A7FB05356D092E01FFF79EFE00EB8000B1
:1011C00000EB800065686D00B0FBF5F9FFF794FE59
:1011D00000EB800000EB800065686D00B0FBF5F56A
:1011E000A7FB05356D094FF0640808FB1595ED0068
:1011F0003235A7FB05356D096D0005F4F8753544EA
:10120000FFF77AFE00EB800000EB80006668760056
:10121000B0FBF6F6FFF770FE00EB800000EB8000FD
:1012200063685B00B0FBF3F3A7FB03235B0908FBD8
:1012300013684FEAC80808F13208A7FB0837C7F35C
:10124000421723682F449F6055E0FFF755FE00EBDF
:10125000800000EB80006568AD00B0FBF5F5284F1D
:10126000A7FB05356D092E01FFF746FE00EB800058
:1012700000EB80006568AD00B0FBF5F9FFF73CFEC0
:1012800000EB800000EB80006568AD00B0FBF5F579
:10129000A7FB05356D094FF0640808FB15952D0176
:1012A0003235A7FB05356D0905F0F0053544FFF72C
:1012B00023FE00EB800000EB80006668B600B0FB08
:1012C000F6F6FFF719FE00EB800000EB8000636884
:1012D0009B00B0FBF3F0A7FB0030400908FB10684F
:1012E0004FEA081808F13208A7FB0837C7F343177D
:1012F00023682F449F60BDE8F88300BF00100140C1
:101300001F85EB512DE9F04105460F4616469846DC
:10131000069C2B681B6837EA03030CBF01230023DC
:10132000B3421DD1B4F1FF3FF3D02CB1FFF7E8FA7F
:10133000A0EB0800A042ECD92A68D36823F4D0734C
:10134000D3602A68536923F001035361202385F891
:10135000393085F83A30002385F83830032000E032
:101360000020BDE8F081704758B310B5044690F8EE
:1013700039300BB3242384F839302268D36823F43E
:101380000053D3602046FFF723FE2268136923F43D
:10139000904313612268536923F02A035361226842
:1013A000D36843F40053D3600020E063202384F823
:1013B000393084F83A3010BD80F83830FFF7D3FF69
:1013C000D8E7012070472DE9F04182B01E4690F821
:1013D0003930DBB2202B55D104460D46904600290A
:1013E00055D0002A55D090F83830012B53D0012326
:1013F00080F838300023C363212380F83930FFF7A9
:101400007FFA0746A4F82480A4F8268010E000960E
:101410003B46002280212046FFF774FF00283CD184
:101420002B882268C3F3080353602369C3B90235CC
:10143000E38C9BB2B3B1E38C013B9BB2E384A36822
:10144000B3F5805FE3D000963B4600228021204622
:10145000FFF758FF18BB2A7823685A600135E7E781
:101460000135E5E700963B46002240212046FFF784
:1014700049FF0346A8B9202284F83920002284F8C5
:10148000382000E00223184602B0BDE8F0810123B5
:10149000F9E70123F7E70223F5E70323F3E7032343
:1014A000F1E70323EFE703685A6912F4806F0DD068
:1014B0006FF480625A6104230364002303632022D3
:1014C00080F83D2080F83C300120704700207047B4
:1014D000F8B506460C4617461D461EE02DB1FFF72F
:1014E0000FFA069BC01AA84217D9002333632022A3
:1014F00086F83D2086F83E3086F83C3003201AE01E
:1015000033685B6924EA03039BB2B3FA83F35B0994
:101510009F420FD1B5F1FF3FE0D1C4F30743012B48
:10152000EED033689B6924EA03039BB2B3FA83F3DA
:101530005B09EDE70020F8BDF8B504460D461646F8
:101540001F4632E01A6842F400721A6023686FF492
:1015500080625A610423236400232363202284F8D9
:101560003D2084F83C3001202DE026B1FFF7C8F97A
:10157000C01BB04219D900232363202284F83D20E8
:1015800084F83C3003201EE023685B6925EA0303EE
:101590009BB2003318BF0123A3B123685A6912F428
:1015A000806FCFD1B6F1FF3FDFD1C5F30743012BE9
:1015B000EAD023689B6925EA03039BB2003318BF76
:1015C0000123E9E70020F8BDF0B583B004460D46DD
:1015D00016461F46C36A042B0DD0012B0BD013F502
:1015E000803F08D0036B122B0AD10268136843F4C2
:1015F0008073136004E02268136843F480731360FF
:101600000097334600224FF001112046FFF760FF9C
:1016100058BB2369B3F5804F10D1236805F0FE0550
:101620001D613B46324615492046FFF785FF0346BC
:10163000E0B1236C042B1ED1012317E0EB112268CB
:1016400003F0060343F0F00313613B4632460C49B6
:101650002046FFF771FF20B1236C042B09D1012331
:1016600004E02368EDB21D61DBE70323184603B0F5
:10167000F0BD0323FAE70323F8E700BF02000100EF
:101680000800010070B504460D46164623685B69E4
:1016900013F0800F19D12046FFF705FFB8B9B5F157
:1016A000FF3FF3D025B1FFF72BF9801BA842EDD9FE
:1016B000236C43F02003236400232363202284F857
:1016C0003D2084F83C30032000E0002070BD012064
:1016D000FCE770B504460D46164623685B6913F0B7
:1016E000040F19D12046FFF7DEFEB8B9B5F1FF3F70
:1016F000F3D025B1FFF704F9801BA842EDD9236C84
:1017000043F02003236400232363202284F83D2038
:1017100084F83C30032000E0002070BD0120FCE78D
:1017200070470000002800F0828010B5044690F851
:101730003D30002B41D0242384F83D3022681368CB
:1017400023F001031360FFF7C7FB3A4BA3FB002311
:101750009B0C226853606168374A914232D801334A
:10176000226813626368344A934235D85B00B0FB49
:10177000F3F0C0F30B03032B00D804202368D861D7
:10178000E369216A22680B4313602369E1682268D8
:101790000B4393606369A16922680B43D36022689D
:1017A000136843F00103136000202064202384F8B1
:1017B0003D30206384F83E0010BD80F83C30FFF7D8
:1017C000AFFFB8E74FF4967202FB03F31B4AA2FB8C
:1017D00003239B090133C3E7A16889B903EB4302E3
:1017E000B0FBF2F2C2F30B02B2FA82F25209E2B992
:1017F00091B903EB4303B0FBF3F040F40040BDE7C5
:1018000003EB830202EB8202B0FBF2F2C2F30B02A3
:10181000B2FA82F25209EAE703EB830303EB830394
:10182000B0FBF3F040F44040A8E70120A6E7012018
:10183000704700BF83DE1B43A0860100D34D6210BA
:101840007047A8B110B50446242380F83D300268E3
:10185000136823F001031360FFF7F2FF00202064F8
:1018600084F83D00206384F83E0084F83C0010BDFD
:10187000012070472DE9F04184B004460E469046A1
:101880001F46FFF73DF894F83D30DBB2202B04D023
:101890000226304604B0BDE8F081054600901923C9
:1018A000012254492046FFF713FE002840F099809A
:1018B00094F83C30012B00F09680012384F83C30F2
:1018C00023681A6812F0010F03D11A6842F001026E
:1018D0001A602268136823F400631360212384F8DC
:1018E0003D30102384F83E3000232364C4F8248064
:1018F0006785A3F58033E362638D23852B460A9ABF
:1019000031462046FFF760FE064660B1236C042B8B
:1019100004D1002384F83C300126BAE7002384F880
:101920003C300326B5E70023039323685A690392EA
:101930009B690393039B10E0236C042B55D1226811
:10194000136843F4007313600126A2E72A460A993C
:101950002046FFF7BEFE00282BD1238D002B32D06E
:101960002A460A992046FFF78DFE0028E4D1636AD3
:101970005A1C626222681B781361638D013B9BB223
:101980006385238D013B9BB223852268516911F049
:10199000040FDBD0002BD9D0636A591C61621B781D
:1019A0001361638D013B9BB26385238D013B2385CE
:1019B000CCE7236C042B1AD12268136843F400731C
:1019C0001360012665E72268136843F4007313600F
:1019D000202384F83D30002384F83E3084F83C30E6
:1019E00057E7022655E7022653E7032651E7032669
:1019F0004FE700BF02001000064B1A681368B3FAE5
:101A000083F35B09036013B9D3681868704700203B
:101A1000704700BF2C04002008B54160006191426E
:101A20000CD8D21A83699A4201D3012010E0011D1B
:101A3000094B186801F07AFB002009E09A4201D2B4
:101A4000994206D2011D054B186801F06FFB00207A
:101A500008BD0120FCE700BF300400202C0400205A
:101A600038B501F0F7F90F4B1B6813B101F014FA08
:101A700038BD0D4D284601F03FFB0C4C204601F0CF
:101A80003BFB0B4B1D600B4B1C6000220C210A2002
:101A900000F043FF034B18600028E7D0064901F02F
:101AA00031F9E3E7600400203404002048040020FA
:101AB0002C04002030040020D837000800B583B083
:101AC000FFF7CEFF0D4B1B685BB10D4B019302235B
:101AD000009300234FF482720A490B4800F0FCFA8D
:101AE00040B94FF0500383F31188BFF36F8FBFF3FA
:101AF0004F8FFEE703B05DF804FB00BF60040020D9
:101B000064040020E0370008D11D0008C8B130B5DA
:101B100085B015460446174A106840B31A4601912D
:101B20000295039405291DDC00F09CFD022811D0CC
:101B300000231A4601A90F48006800F013FF05B002
:101B400030BD4FF0500383F31188BFF36F8FBFF3A5
:101B50004F8FFEE70023089A01A90648006800F0AD
:101B600001FFECE7002301A900F0BAFFE7E700203E
:101B7000E5E700BF6004002070B582B01A4B1B6817
:101B80001A6852B3DB681E68DC68251D284601F020
:101B9000E7FA636A20469847E369012BEED1A3690F
:101BA00033449E4207D26360246129460E4B186875
:101BB00001F0BCFAE2E7002100910B4632462046D4
:101BC000FFF7A4FF0028D9D14FF0500383F3118809
:101BD000BFF36F8FBFF34F8FFEE7044A10680249CF
:101BE0000860136002B070BD2C0400203004002097
:101BF00038B5054600F0ECFA0446074B1B688342F3
:101C000005D800232B60044B1C60204638BDFFF72D
:101C1000B3FF01232B60F6E75C04002070B582B0AF
:101C200005460E46144B1B68DB68DC68201D01F07E
:101C300097FAE369012B04D0636A2046984702B003
:101C400070BDA1692B46324629442046FFF7E4FEC9
:101C50000028F1D0002100910B462A462046FFF7CC
:101C600055FF0028E8D14FF0500383F31188BFF3EC
:101C70006F8FBFF34F8FFEE72C04002070B582B04A
:101C800006460C4600F09CFA01A8FFF7B1FF019B45
:101C90001BBB05460CB9B04218D22CB1114B1B68C6
:101CA0001C68B4FA84F464092246711B0E4B186850
:101CB00001F03CF800F01EFB88B90C4B4FF080524D
:101CC0001A60BFF34F8FBFF36F8F08E000F012FB75
:101CD00029463046FFF7A2FF01E000F00BFB02B0FF
:101CE00070BD00BF300400206004002004ED00E05F
:101CF00030B587B0002203A9344B186800F056FFB6
:101D0000002860D0039B002BF4DB059C636913B1B2
:101D1000201D01F025FA02A8FFF76AFF039B092B9B
:101D2000E8D801A252F823F0511D0008511D000807
:101D3000511D0008F51C0008991D0008BF1D000872
:101D4000511D0008511D0008F51C0008991D0008D0
:101D50000499A5690B46024629442046FFF75CFE1C
:101D60000028C7D0636A20469847E369012BC1D198
:101D7000A269002100910B46049802442046FFF717
:101D8000C5FE0028B6D14FF0500383F31188BFF38E
:101D90006F8FBFF34F8FFEE70499A16131B1034606
:101DA000024601442046FFF737FEA3E74FF05003F9
:101DB00083F31188BFF36F8FBFF34F8FFEE7204689
:101DC00001F012FA96E707B030BD00BF60040020B2
:101DD00000B583B001A8FFF70FFE0199FFF74EFF92
:101DE000FFF786FFF6E70000084B1B681B683BB156
:101DF000064B1B68DB68DB685A68054B1A60704746
:101E0000034B4FF0FF321A60704700BF6C04002094
:101E10001C05002010B50446006B01F0E5F92046D2
:101E200001F0E2F910BD2DE9F04781460D46174655
:101E30009A46089EDDF824800A9C9200A521206B1A
:101E400001F097FC236B07F18042013A03EB820714
:101E500027F007070023092B07D8E95CE21882F86E
:101E60003410EA5C0AB10133F5E7002384F83D3011
:101E7000042E00D90426E662A6640025E564201D30
:101E800001F045F904F1180001F041F92461C6F1AF
:101E90000506A6616462256584F854505246494699
:101EA000384600F0ABFF2060B8F1000F01D0C8F851
:101EB0000040BDE8F087000038B5002407E004EBDF
:101EC000840293000E48184401F016F90134042CE2
:101ED000F5D90C4D284601F00FF90B4C204601F0C6
:101EE0000BF90A4801F008F9094801F005F9094819
:101EF00001F002F9084B1D60084B1C6038BD00BFA3
:101F000074040020F00400200405002024050020B3
:101F1000500500203C0500206C04002070040020C7
:101F200010B5044600F096FF214A13680133136090
:101F3000204B1B685BB1204B1B686BB91D4B1B68AA
:101F4000DA6AE36A9A4207D81A4B1C6004E0194B1C
:101F50001C601368012B27D0184A136801331360E3
:101F60002364E36A01229A401549086802430A6023
:101F700003EB83039A00211D1248104401F0CAF8B4
:101F800000F08AFF0C4B1B686BB10A4B1B68DA6AC6
:101F9000E36A9A4207D20C4B4FF080521A60BFF3AB
:101FA0004F8FBFF36F8F10BDFFF786FFD4E700BFE1
:101FB000D80400206804002038050020E804002030
:101FC000EC0400207404002004ED00E00F4B1B68BB
:101FD000D3B110B500F03EFF0D4BDB68DC68201D6F
:101FE00001F0BEF80B4A1368013B1360074A1368FF
:101FF000013B136000F050FF2046FFF70BFF034B3F
:102000001B68002BE6D110BD704700BFDC04002028
:1020100050050020D804002008B5FFF7D7FF064B75
:102020001B68012BF9D9054B4FF080521A60BFF3A2
:102030004F8FBFF36F8FF0E77404002004ED00E0D2
:1020400070B504460E461D4B1D681D4B18680430C4
:1020500001F086F850B91A4B1B68DA6A012303FABB
:1020600002F218490B6823EA02030B60B4F1FF3F48
:1020700013D02C44124B1B685C60A54216D8124B3F
:1020800018680F4B1968043101F050F80F4B1B68AA
:10209000A34212D90D4B1C600FE0002EE9D0084B73
:1020A000196804310A4801F035F806E0094B186850
:1020B000034B1968043101F039F870BD6405002044
:1020C00068040020EC0400206C0400201C050020A3
:1020D0003C050020700400202DE9F04385B0074640
:1020E000884615469946900001F04EF8F8B106462C
:1020F000582001F049F80446A8B10663D4B1002382
:10210000039302940D9B01930C9B00934B462A462C
:1021100041463846FFF787FE2046FFF701FF0120C2
:1021200005B0BDE8F083304601F05EF8E6E74FF019
:10213000FF30F5E74FF0FF30F2E7000000B583B065
:10214000194B019300230093822218491848FFF786
:10215000C3FF012807D0012808D0B0F1FF3F1AD0F3
:1021600003B05DF804FBFFF7A9FCF4E74FF0500360
:1021700083F31188BFF36F8FBFF34F8F0D4B4FF079
:10218000FF321A600C4B01221A600C4B00221A60BD
:1021900000F0FCFEE4E74FF0500383F31188BFF337
:1021A0006F8FBFF34F8FFEE718050020E837000858
:1021B000192000081C0500203805002064050020B7
:1021C000024A136801331360704700BFE404002023
:1021D000014B1868704700BF64050020F8B53A4B02
:1021E0001B68002B64D1394B1D6801351D60C5B9D2
:1021F000374B1B681B6843B14FF0500383F31188C2
:10220000BFF36F8FBFF34F8FFEE7314A1168314B39
:10221000186810601960304A136801331360FFF7C3
:10222000E3FD2E4B1B68AB4238D900242C4B1B68B6
:10223000DB6A03EB83039A002A4B9B58012B3CD9A2
:1022400001243AE00124224B1B681B6843B3204B56
:102250001B68DB68DE6873689D4226D3371D3846ED
:1022600000F07EFFB36A1BB106F1180000F078FFA2
:10227000F36A01229A401C49086802430A6003EB92
:1022800083039A0039461748104400F043FFF26A6E
:10229000134B1B68DB6A9A42D4D2D4E70024D2E7FE
:1022A0000E4B4FF0FF321A60C0E70C4A1360BDE7D7
:1022B0000E4A13680133136000240D4B1B6803B1F1
:1022C00001242046F8BD00BFE4040020640500207E
:1022D0006C04002070040020200500201C05002054
:1022E0006804002074040020EC040020E0040020B6
:1022F0006805002038B5334B1B6843B94FF05003D5
:1023000083F31188BFF36F8FBFF34F8FFEE700F0A9
:10231000A1FD2C4B1A68013A1A601B68002B4DD1A5
:10232000294B1B6823B9002400F0B6FD204638BDB8
:102330000024264B1B681BB3244BDB68DC6804F1CC
:10234000180000F00DFF251D284600F009FFE36A84
:1023500001229A401E49086802430A6003EB830386
:102360009A0029461B48104400F0D4FEE26A1A4B3A
:102370001B68DB6A9A42DCD3184B01221A60D8E74B
:102380000CB1FFF731FD164B1C6854B1FFF726FF67
:1023900010B1124B01221A60013CF7D1104B002200
:1023A0001A600E4B1B685BB10E4B4FF080521A60E7
:1023B000BFF34F8FBFF36F8F0124B5E70024B3E75E
:1023C0000024B1E7E4040020D80400202405002004
:1023D000EC0400207404002068040020680500203C
:1023E000E004002004ED00E010B5A8B104460F4B56
:1023F0001B6843B14FF0500383F31188BFF36F8F15
:10240000BFF34F8FFEE7FFF7DBFE00212046FFF70B
:1024100017FEFFF76FFF38B9054B4FF080521A6077
:10242000BFF34F8FBFF36F8F10BD00BFE4040020D8
:1024300004ED00E0204B1B681BB1204B01221A6009
:1024400070471E4B00221A601D4B1B68B3FA83F3C2
:10245000DBB2C3F11F0303EB83018A0019498A58D9
:1024600042B94FF0500383F31188BFF36F8FBFF36E
:102470004F8FFEE710B413489A00D418A10001440E
:102480004C6864684C601A449100083108448442E6
:102490000BD003EB83039A000A4B13445B68DA68A2
:1024A000094B1A605DF8044B7047616805481422B7
:1024B00002FB03025160ECE7E40400206805002001
:1024C000EC040020740400206804002040B94FF0A0
:1024D000500383F31188BFF36F8FBFF34F8FFEE775
:1024E00010B50C46044B1968183100F01FFE01218D
:1024F0002046FFF7A5FD10BD6804002038B540B99F
:102500004FF0500383F31188BFF36F8FBFF34F8FEA
:10251000FEE70C461546064A1168183100F0FAFD30
:102520000DB14FF0FF3429462046FFF789FD38BD35
:102530006804002038B5C368DC6844B94FF0500324
:1025400083F31188BFF36F8FBFF34F8FFEE704F162
:102550001805284600F004FE134B1B68E3B9251D3F
:10256000284600F0FDFDE36A01229A400F49086801
:1025700002430A6003EB83039A0029460C48104487
:1025800000F0C8FDE26A0B4B1B68DB6A9A4208D96F
:102590000120094B186038BD2946084800F0BAFDF3
:1025A000F0E70020F7E700BFE4040020EC0400207F
:1025B0007404002068040020680500202405002021
:1025C000034B1B680360034B1B684360704700BFED
:1025D0002005002064050020F8B550B1054689B9F2
:1025E0004FF0500383F31188BFF36F8FBFF34F8F0A
:1025F000FEE74FF0500383F31188BFF36F8FBFF3F3
:102600004F8FFEE70C4600F025FC114B19686868F7
:102610000A1A2368B3F1FF3F16D02F680D4E3668B3
:10262000B74201D0884211D9934203D800232360D6
:10263000012405E09B1A23602846FFF7C1FF002410
:1026400000F02AFC2046F8BD0024F9E70124F7E752
:102650006405002020050020014B01221A6070470C
:1026600068050020054B1B6833B1054B1B680BB197
:102670000020704702207047012070473805002075
:10268000E4040020002849D038B50446264A1268E0
:10269000824208D04FF0500383F31188BFF36F8F4D
:1026A000BFF34F8FFEE7C26C42B94FF0500383F384
:1026B0001188BFF36F8FBFF34F8FFEE7013AC264FB
:1026C000C06AA16C88422BD062BB251D284600F051
:1026D00047FD70B9E26A142303FB02F31349CB5898
:1026E0003BB9012303FA02F211490B6823EA020302
:1026F0000B60A36CE362C3F10502A261012404FA3A
:1027000003F20B49086802430A602946074A14206D
:1027100000FB032000F0FEFC204638BD002070477F
:102720000020FAE70020F8E7680400207404002085
:10273000EC04002010B5044600F08CFBA26BE36BA8
:102740009A4204D0002400F0A7FB204610BD0124CB
:10275000F9E710B5044600F07DFBA36B23B100241C
:1027600000F09AFB204610BD0124F9E770B504463D
:102770001646856B026C5AB903681BB100200135FF
:10278000A56370BD4068FFF77DFF00236360F6E737
:102790006EB9806800F0E2FF226CA3681344A36066
:1027A0006268934219D32368A3600020E7E7C068FA
:1027B00000F0D4FF226C5242E3681344E3602168C6
:1027C0008B4202D263681A44E260022E01D00020DC
:1027D000D5E725B1013D0020D1E70020CFE700205B
:1027E000CDE7026C72B110B5C3681344C36044688E
:1027F000A34201D30368C3600C46C168204600F0C1
:10280000ADFF10BD704738B5054600F023FB95F8C5
:10281000454064B203E0FFF71FFF013C64B2002CA7
:1028200008DD6B6A33B105F12400FFF783FE002851
:10283000F3D0F0E7FF2385F8453000F02DFB00F0E2
:1028400009FB95F8444064B203E0FFF705FF013C43
:1028500064B2002C08DD2B6933B105F11000FFF7DD
:1028600069FE0028F3D0F0E7FF2385F8443000F03C
:1028700013FB38BD38B540B94FF0500383F31188CE
:10288000BFF36F8FBFF34F8FFEE704460D4600F096
:10289000E1FA2168E26B236C03FB02106060002008
:1028A000A063A160013A02FB0313E360FF2384F8F5
:1028B000443084F84530A5B923691BB900F0ECFA1F
:1028C000012038BD04F11000FFF734FE0028F5D0D8
:1028D000084B4FF080521A60BFF34F8FBFF36F8FDA
:1028E000ECE704F1100000F007FC04F1240000F014
:1028F00003FCE3E704ED00E038B51D46049C0B46FD
:1029000049B12260E063236401212046FFF7B2FF52
:1029100084F84C5038BD2460F4E740B94FF05003C0
:1029200083F31188BFF36F8FBFF34F8FFEE7F0B5CE
:1029300083B0054611B101FB00F000E0002017460E
:102940000C46503000F020FC064638B100903B4663
:1029500000F1500221462846FFF7CEFF304603B073
:10296000F0BD0000F0B585B0019260B1044699B9A0
:10297000026C8AB14FF0500383F31188BFF36F8F5D
:10298000BFF34F8FFEE74FF0500383F31188BFF37F
:102990006F8FBFF34F8FFEE7022B0BD1E26B012A43
:1029A00008D04FF0500383F31188BFF36F8FBFF34C
:1029B0004F8FFEE71E460F46FFF754FE50B9019BAE
:1029C00053B14FF0500383F31188BFF36F8FBFF300
:1029D0004F8FFEE700253AE0002538E032463946C1
:1029E0002046FFF7C3FE636A4BB9A8B13B4B4FF0DB
:1029F00080521A60BFF34F8FBFF36F8F0CE004F16A
:102A00002400FFF797FD38B1344B4FF080521A6025
:102A1000BFF34F8FBFF36F8F00F03EFA012005B078
:102A2000F0BD00F039FA0020F9E702A8FFF7C8FD71
:102A3000012519E0002384F8443021E0002384F8C4
:102A4000453023E02046FFF7DEFEFFF753FC00F0A1
:102A500001FAA26BE36B9A42C0D3022EBED0019B57
:102A6000002BDED0002DE0D000F016FAFFF7A8FB17
:102A700000F0F0F994F844305BB2B3F1FF3FD9D0E5
:102A800094F845305BB2B3F1FF3FD7D000F004FAC1
:102A900001A902A8FFF7A0FDC8B92046FFF74AFE2A
:102AA0000028CFD0019904F11000FFF70FFD204658
:102AB000FFF7A9FEFFF71EFC0028C8D1074B4FF017
:102AC00080521A60BFF34F8FBFF36F8FBFE720466E
:102AD000FFF799FEFFF70EFC0020A0E704ED00E0F1
:102AE0002DE9F84360B1044699B9006C88B14FF004
:102AF000500383F31188BFF36F8FBFF34F8FFEE74F
:102B00004FF0500383F31188BFF36F8FBFF34F8FE4
:102B1000FEE7022B0BD1E06B012808D04FF05003E9
:102B200083F31188BFF36F8FBFF34F8FFEE71F460C
:102B30009046894600F0B2FAEFF311864FF0500349
:102B400083F31188BFF36F8FBFF34F8FA26BE36BDB
:102B50009A4203D3022F01D000200FE094F8455091
:102B60006DB23A4649462046FFF700FEB5F1FF3FF9
:102B700008D06B1C5BB284F84530012086F31188C5
:102B8000BDE8F883636A5BB104F12400FFF7D2FC6F
:102B900040B1B8F1000F07D00120C8F80000EDE700
:102BA0000120EBE70120E9E70120E7E7F0B585B078
:102BB000019260B1044699B9036C8BB14FF0500398
:102BC00083F31188BFF36F8FBFF34F8FFEE74FF092
:102BD000500383F31188BFF36F8FBFF34F8FFEE76E
:102BE0000F46FFF73FFD50B9019B53B14FF0500323
:102BF00083F31188BFF36F8FBFF34F8FFEE700267B
:102C00003EE000263CE039462046FFF7EAFD013D64
:102C1000A563236923B900F03FF9012005B0F0BD99
:102C200004F11000FFF786FC0028F4D0344B4FF07D
:102C300080521A60BFF34F8FBFF36F8FEBE700F046
:102C40002BF90020EAE702A8FFF7BAFC012621E0F1
:102C5000002384F8443029E0002384F845302BE039
:102C60002046FFF7D0FDFFF745FB09E02046FFF7C0
:102C7000CAFDFFF73FFB2046FFF76BFD00283DD163
:102C800000F0E8F8A56B002DBDD1019B002BD6D03C
:102C9000002ED8D000F000F9FFF792FA00F0DAF831
:102CA00094F844305BB2B3F1FF3FD1D094F8453093
:102CB0005BB2B3F1FF3FCFD000F0EEF801A902A85C
:102CC000FFF78AFC0028D1D12046FFF742FD0028FB
:102CD000C6D0019904F12400FFF7F8FB2046FFF766
:102CE00092FDFFF707FB0028CAD1054B4FF0805239
:102CF0001A60BFF34F8FBFF36F8FC1E700208DE7DE
:102D000004ED00E00023072B0CD8074A52F83320CB
:102D10000AB10133F7E7044A42F8331002EBC30368
:102D200058607047704700BF2C32012070B50446D0
:102D30000D46164600F08EF894F844305BB2B3F1BD
:102D4000FF3F0DD094F845305BB2B3F1FF3F0BD09D
:102D500000F0A2F8A36B5BB12046FFF754FD70BDF5
:102D6000002384F84430EDE7002384F84530EFE792
:102D70003246294604F12400FFF7C0FBECE70000CF
:102D800082B0002301930D4B1B68B3F1FF3F08D0C5
:102D90004FF0500383F31188BFF36F8FBFF34F8F52
:102DA000FEE74FF0500383F31188BFF36F8FBFF33B
:102DB0004F8F019B002BFCD002B070470C0000200D
:102DC00008480068006880F308884FF0000080F32E
:102DD000148862B661B6BFF34F8FBFF36F8F00DF09
:102DE00000BF000008ED00E0DFF80C00016841F4CE
:102DF000700101607047000088ED00E04FF08073C3
:102E000040F8043C21F0010140F8081C054B40F853
:102E10000C3C40F8202C6FF0020340F8243C44386E
:102E2000704700BF812D0008000000000000000076
:102E3000074B19680868B0E8F04F80F30988BFF3C2
:102E40006F8F4FF0000080F311887047AFF3008060
:102E5000680400204FF0500383F31188BFF36F8F95
:102E6000BFF34F8F0A4A136801331360012B00D060
:102E70007047084B1B6813F0FF0FF9D04FF0500359
:102E800083F31188BFF36F8FBFF34F8FFEE700BF4F
:102E90000C00002004ED00E0094B1B6843B94FF023
:102EA000500383F31188BFF36F8FBFF34F8FFEE79B
:102EB000013B034A13600BB983F31188704700BFCD
:102EC0000C000020000000000000000000000000D6
:102ED000EFF30980BFF36F8F154B1A681EF0100FC8
:102EE00008BF20ED108A20E9F04F10602DE909009D
:102EF0004FF0500080F31188BFF34F8FBFF36F8FF7
:102F0000FFF798FA4FF0000080F3118809BC1968A8
:102F10000868B0E8F04F1EF0100F08BFB0EC108A40
:102F200080F30988BFF36F8F704700BFAFF3008055
:102F30006804002008B54FF0500383F31188BFF3F5
:102F40006F8FBFF34F8FFFF749F918B1044B4FF064
:102F500080521A60FDF7C8FC002383F3118808BD76
:102F600004ED00E0054B00221A6005490A60054A9D
:102F70000549116007221A60704700BF10E000E0A9
:102F800018E000E014E000E0BFD401003A4B1A68FA
:102F90003A4B9A420DD0384B1A68394B9A4211D1AC
:102FA0004FF0500383F31188BFF36F8FBFF34F8F40
:102FB000FEE74FF0500383F31188BFF36F8FBFF329
:102FC0004F8FFEE710B582B02E4B1A78D2B2019225
:102FD000FF221A701B78DBB28DF803309DF80330A6
:102FE00003F05003284A1370284B07221A6009E0A7
:102FF000264A1368013B13609DF803305B00DBB287
:103000008DF803309DF8033013F0800FF0D11F4B83
:103010001B68032B08D04FF0500383F31188BFF3D4
:103020006F8FBFF34F8FFEE71B0203F4E063174A75
:103030001360019BDBB2134A1370154B1A6842F4FC
:1030400070021A601A6842F070421A60FFF78AFF35
:103050000024104B1C60FFF7C7FE0F4A136843F0B3
:1030600040431360FFF7ACFEFFF7E4F9FFF788FE7B
:10307000204602B010BD00BF00ED00E071C20F415C
:1030800070C20F4100E400E06C05002070050020D4
:1030900020ED00E00C00002034EF00E0EFF30583AA
:1030A0000F2B0FD9104A9B5CDBB2104A12789A4260
:1030B00008D94FF0500383F31188BFF36F8FBFF32C
:1030C0004F8FFEE70A4B1B6803F4E063094A12685E
:1030D000934208D94FF0500383F31188BFF36F8FE9
:1030E000BFF34F8FFEE77047F0E300E06C05002070
:1030F0000CED00E07005002000F1080343604FF084
:10310000FF328260C36003610023036070470023C5
:103110000361704743684B609A688A609A6851609F
:1031200099600861036801330360704730B40D682B
:10313000B5F1FF3F02D000F1080202E0026904E0AD
:103140001A4653681C68AC42FAD953684B609960C0
:103150008A605160086103680133036030BC7047C6
:1031600003694268816891608268416851605A6869
:10317000824206D0002202611A68013A1A60186879
:10318000704782685A60F5E738B5044610F0070FBB
:1031900002D020F007040834FFF712F80E4B1B682A
:1031A00083B10E4B1B681C440D4A944210D8A342B5
:1031B00010D2094A15681D44084B1C60FFF79AF8A5
:1031C000284638BD074B23F00703034A1360E8E79E
:1031D0000025F3E70025F1E7740500207831012090
:1031E000F72B01008005002040B14FF0500383F31E
:1031F0001188BFF36F8FBFF34F8FFEE7704700005A
:10320000F8B50F4615461E4604464FF47A7302463B
:103210000648FEF7D8F83DB136B14FF47A7322462E
:1032200039460248FEF7CFF8F8BD00BF80310120D3
:1032300070B586B04FF40073019302230293072602
:10324000059603230493002403941C4D01A92846EA
:10325000FDF720FA4FF48063019312230293059641
:1032600001A92846FDF716FA0094154B5A6C42F056
:1032700010025A645B6C03F010030093009B11482A
:10328000114B03604FF4E13242608460C46004611A
:103290000C2242614FF440728261C4610B4A2021CA
:1032A0005160DA680A43DA60FEF75EF808B906B0E2
:1032B00070BD2C210648FDF73DF9F8E700000240FB
:1032C00000380240803101200010014000E100E0A0
:1032D000F037000808B5FFF7ABFF044B044A1A604B
:1032E0004FF47A70FFF780F8FAE700BF88320120C8
:1032F000013200087047000000B587B0002100913E
:103300000C4B1A6B42F004021A631B6B03F00403AC
:103310000093009B4FF48073019301230293039168
:103320000223049301A90448FDF7B4F907B05DF83E
:1033300004FB00BF003802400008024030B589B0ED
:10334000002501951D4C236B43F002032363236B7F
:1033500003F002030193019BC02303931223049300
:10336000022306930423079303A91548FDF792F956
:103370000295236C43F400132364236C03F40013BD
:103380000293029B0F4C104B23604FF48043236148
:103390000E4B63606561A560E5612562E560A5612E
:1033A0002046FEF74EFA2046FEF7BCF908B909B0F0
:1033B00030BDAD210648FDF7BDF8F8E70038024002
:1033C000000402408C32012000540040801A0600A4
:1033D0001438000810B50D4C00224FF480712046BF
:1033E000FDF73CFA0120FDF791FA01224FF48071BC
:1033F0002046FDF733FA0A20FDF788FA00224FF441
:1034000080712046FDF72AFA10BD00BF0008024077
:1034100000B585B000238DF80C308DF80D006423C5
:103420000093022303AA78210248FEF723FA05B08D
:103430005DF804FB8C32012008B5FFF77FFFFFF732
:103440005BFFFFF7C7FFAE20FFF7E2FFD520FFF7D6
:10345000DFFF8020FFF7DCFFA820FFF7D9FF3F2028
:10346000FFF7D6FFD320FFF7D3FF0020FFF7D0FFF1
:103470004020FFF7CDFF8D20FFF7CAFF1420FFF794
:10348000C7FF2020FFF7C4FF0020FFF7C1FFA120E6
:10349000FFF7BEFFC820FFF7BBFFDA20FFF7B8FF3A
:1034A0001220FFF7B5FF8120FFF7B2FFCF20FFF713
:1034B000AFFFD920FFF7ACFFF120FFF7A9FFDB201A
:1034C000FFF7A6FF4020FFF7A3FFA420FFF7A0FF10
:1034D000A620FFF79DFF2E20FFF79AFFAF20FFF7F2
:1034E00097FF08BD10B588B02120FFF791FF00209D
:1034F000FFF78EFF7F20FFF78BFF2220FFF788FF6B
:103500000020FFF785FF0720FFF782FF002413E06C
:103510000E4A115D08AA1A4402F8141C0134A4B220
:1035200001339BB2102BF3D964230093112303AA18
:1035300078210748FEF79EF9B4F5806F04D2402346
:103540008DF80C300123EDE708B010BD100000200D
:103550008C32012008B54FF480620021014800F050
:1035600008F908BD1000002008B501220021084616
:1035700000F062F801221146002000F05DF80122FF
:103580000221002000F058F8012200210A2000F05A
:1035900053F8012211460A2000F04EF801220221C0
:1035A0000A2000F049F8012200217F2000F044F8B1
:1035B000012211467F2000F03FF8012202217F20E6
:1035C00000F03AF8FFF78EFF08BD00000E4B1880A0
:1035D0000E4B19800E4B18800E4B198000230E4A9B
:1035E00013700E4A13800E4A138001220D490A708F
:1035F0004FF6FF710C4801800C4801800C490A709D
:103600000C4A1370704700BFC0310120C431012043
:10361000C6310120CC310120C2310120C831012046
:103620007C310120CB3101202432012026320120BF
:10363000CA310120C331012000281ADB002918DB20
:10364000194BB3F90030834213DD184BB3F9003046
:103650008B420EDD164B1B78022B12D0032B1BD096
:10366000012B07D0134BB3F9003001FB0301124BC0
:103670005A5470470F4B1B88591A4B1E014618B2FB
:10368000F0E70C4B1B88181A013800B20B4B1B8853
:10369000591A013909B2E5E7084B1B88181A431E6D
:1036A000084619B2DEE700BFC6310120CC31012047
:1036B000C2310120C031012010000020C43101209E
:1036C000DFF834D0002103E00C4B5B584350043149
:1036D0000B480C4B42189A42F6D30B4A02E00023E7
:1036E00042F8043B094B9A42F9D3FCF7ADFF00F0D6
:1036F00011F8FCF76FFF7047000002204038000807
:10370000000000201004002010040020E0320120FE
:10371000FEE7000070B50D4E0D4CA41BA410002553
:10372000A54209D10B4E0C4C00F02CF8A41BA410A0
:103730000025A54205D170BD56F8253098470135C2
:10374000EEE756F8253098470135F2E7383800089B
:1037500038380008383800083C38000810B5431ED7
:103760000A44914200D110BD11F8014B03F8014FFA
:10377000F7E702440346934200D1704703F8011B68
:10378000F9E70000F8B500BFF8BC08BC9E467047DA
:0C379000F8B500BFF8BC08BC9E467047AE
:10379C005372632F6D61696E2E6300004865617210
:1037AC007420426561740000426C7565746F6F74AF
:1037BC00680000000000000000000000010203048B
:1037CC00060708090000000001020304546D725141
:1037DC0000000000546D72205376630049444C4540
:1037EC00000000005372632F447269766572732F68
:1037FC00426C7565746F6F74682F4254313231446A
:10380C0072697665722E63005372632F4472697607
:10381C006572732F4C43442F535344313330362E3F
:04382C006300000035
:08383000D0C9FF7F0100000078
:04383800B5010008CE
:04383C0091010008EE
:103840000024F4000100000010000000AAAAAAAAA7
:103850000000000000000000000000000000000068
:103860000000000000000000000000000000000058
:1038700000000000000000000000000000000080C8
:10388000808080808080E0F0F07070707070707068
:103890007070707070F0F0F03010000000000000E8
:1038A0000000000000000000000000000000000018
:1038B0000000000000000000000000000000000008
:1038C00000000000000000000000000000000000F8
:1038D00000000000808080808080808080808080E8
:1038E00080808080808080808080808080808080D8
:1038F000808090F0F0F07070707070707070707701
:103900007F7F61CDBD9D9D9D9CBEBD3D3FFFFFFF67
:10391000FFFFFFC01F7FFFFCF0F0F0F0F0F07070D1
:10392000707070707070707070707070F0F0F0F097
:10393000F0B08080808080808080808080808080E7
:1039400080808080808080808080800000000000F7
:103950000000000000071F3F7FFBE3C3C383838396
:103960008383838383838383838383838383838327
:103970008383838383838382828282828282828220
:103980008282C2F2FFFFFFFF7F2F233437272F27CA
:1039900033272F27373421273FFFFFFFFBF2C28257
:1039A00082828282828282828282828383838383F2
:1039B00083838383838383838383838383838383D7
:1039C0008383C3C3E3F37F3F0F03000000000000C5
:1039D000000000000000000000000103FFFFFF00E6
:1039E00000000000000000001F07010000000000B0
:1039F000000000000000000F03000000000000E0D5
:103A0000F8FFFFFFFF1F07010000000000004070EB
:103A10007878600000000000000001071F7FFFFFB2
:103A2000FFFFFF0000000000000000000070707049
:103A30007070707070707000000000000000000175
:103A400003FFFFFF71000000000000000000000005
:103A5000000000000000000000000000FFFFFF0069
:103A6000000000000000000000000080E0F8FE0000
:103A70000000000000000000000080C0F0FCFFFF1C
:103A8000FF3F0F0300000000000080E0F0F0F0F0C6
:103A9000F0F0F0F0F0F0E08000000000000001071E
:103AA0000FFFFF00000000000000000000F0F0F039
:103AB000F0F0F0F0F0F0E080000000000000000600
:103AC0001FFFFFF9C0000000000000000000000020
:103AD00000000000000000000000000007070707CA
:103AE0000707070707070707070707070707070766
:103AF000070707070707070707E7FFFF3F0F07014C
:103B000001010181E139070101010101E1FF030127
:103B10000101010FFFE101010101010719E181012B
:103B2000010101071F7FFFE7C7070707070707070F
:103B30000707070707070707070707070707070715
:103B40000707070703000000000000000000000056
:103B50000000000000000000000000000000000065
:103B60000000000000000000000000000000000055
:103B7000000000000000383E7F7FF3E0C0C0C0803E
:103B8000E0B80E03000000000000E0FE7F0100002E
:103B90000000000007FFFCE0000000000000031E22
:103BA000F0C0C0C0E0E0713B3F1F0C00000000000F
:103BB0000000000000000000000000000000000005
:103BC00000000000000000000000000000000000F5
:103BD00000000000000000000000000000000000E5
:103BE00000000000000000000000000000000000D5
:103BF00000000000000000000000000101010103BE
:103C00000307070F0E0E1E1E0E0F0F0F1C1C383859
:103C10003838383C1C1F0F0F0E0E0E0E0E06070311
:103C20000101010100000000000000000000000090
:103C30000000000000000000000000000000000084
:103C40000000000000000000000000000000000074
:04000005080036C1F8
:00000001FF
